:100000000C945E000C9486000C9486000C94860080
:100010000C9486000C9486000C9486000C94860048
:100020000C9486000C9486000C9486000C94860038
:100030000C9486000C9486000C9486000C94860028
:100040000C94AC020C9486000C94FA040C943605C3
:100050000C9486000C9486000C9486000C94860008
:100060000C9486000C94860000000007000201003A
:100070000003040600000000000000000102040864
:100080001020408001020408102001020408102002
:10009000040404040404040402020202020203032E
:1000A0000303030300000000250028002B000000CC
:1000B0000000240027002A00A102F10511241FBE20
:1000C000CFEFD8E0DEBFCDBF11E0A0E0B1E0ECEAB9
:1000D000F5E102C005900D92AC32B107D9F711E0FD
:1000E000ACE2B1E001C01D92A63FB107E1F710E01C
:1000F000CCEBD0E004C02297FE010E94C40AC83BAA
:10010000D107C9F70E94FA070C94D40A0C94000096
:1001100061E0809112010E946D0361E08091140101
:100120000E946D0361E0809116010E946D0360E002
:10013000809110010E946D0360E080910E010E9489
:100140006D0340E855E260E070E08FE491E00C94CC
:100150007105BC01809116010E94FD0360E070E012
:10016000809114010C94FD03CF93DF93EC0160E0C8
:1001700070E0809116010E94FD03BE018091140180
:10018000DF91CF910C94FD0360E070E08091160147
:100190000E94FD0360E070E0809114010C94FD0367
:1001A0004F925F926F927F928F929F92AF92BF9287
:1001B000CF92DF92EF92FF920F931F93CF93DF9333
:1001C00000D000D0CDB7DEB70E944E086B017C0195
:1001D0008090080190900901A0900A01B0900B0155
:1001E0004090040150900501609006017090070155
:1001F000A3019201C501B4010E94B70869837A8303
:100200008B839C8320910001309101014091020178
:1002100050910301C301B2010E944F089B01AC0140
:1002200069817A818B819C810E94060A2C2D3D2D4B
:100230004E2D5F2D0E94060A20912C0130912D0138
:1002400040912E0150912F010E944F082B013C013B
:1002500020913001309131014091320150913301B0
:10026000C501B4010E94060A9B01AC01C301B201A1
:100270000E944E088B015C018C2D9D2DAE2DBF2D53
:100280008093300190933101A0933201B0933301F8
:10029000802F912FAA2DBB2D80932C0190932D019F
:1002A000A0932E01B0932F0120E030E048EC52E4FF
:1002B000602F712F8A2D9B2D0E94020A181664F060
:1002C00020E030E0A901602F712F8A2D9B2D0E9424
:1002D000B30887FF0CC007C000E010E088ECA82E30
:1002E00092E4B92E04C000E010E0A12CB12C22E071
:1002F00030E04C2D5D2D6E2D7F2D8FE491E00E941E
:10030000E607602F712F8A2D9B2D0F900F900F9075
:100310000F90DF91CF911F910F91FF90EF90DF90A1
:10032000CF90BF90AF909F908F907F906F905F9095
:100330004F900895AF92BF92CF92DF92EF92FF92CB
:100340000F931F93809110010E94DC038032934031
:100350000CF045C061E0809112010E94A5030E944B
:10036000F60200914001109141012091420130912B
:100370004301601B710B820B930B60933C017093E4
:100380003D0180933E0190933F010E94F6026093ED
:100390004001709341018093420190934301609129
:1003A0003C0170913D0180913E0190913F016B3085
:1003B00071058105910598F10E9450099B01AC01DE
:1003C00068EF73E58BEF92E40E94B7086093380101
:1003D0007093390180933A0190933B0120C060E013
:1003E000809112010E94A5030E94F6020091400133
:1003F000109141012091420130914301601B710B2A
:10040000820B930B693D7E408105910540F010926F
:1004100038011092390110923A0110923B018091FB
:100420000E010E94DC0390930D0180930C01833335
:100430009105ECF1209138013091390140913A0158
:1004400050913B0163E373E383E39FE30E94D00099
:100450000E941F091F921F921F922FEF2F93A12C12
:10046000B12C650114E6E12EF12C00E010E020E053
:1004700030E0A9010E9407080E94520960933401EC
:100480007093350180933601909337010F900F9050
:100490000F900F900E941F09CB011F910F91FF90A9
:1004A000EF90DF90CF90BF90AF900C94A90043974E
:1004B0004F9750F41F910F91FF90EF90DF90CF90E6
:1004C000BF90AF900C94C40080910E010E94DC0399
:1004D000429774F560910C0170910D01882777FDAA
:1004E0008095982F1F921F921F922FEF2F93A12C70
:1004F000B12C650112E1E12EF12C00E010E02CE0BE
:1005000030E040E050E00E9407087093450160939E
:1005100044010F900F900F900F90CB011F910F91FE
:10052000FF90EF90DF90CF90BF90AF900C94B4000D
:100530001F910F91FF90EF90DF90CF90BF90AF9001
:1005400008950E94F60260934001709341018093E8
:1005500042019093430108951F920F920FB60F929C
:1005600011242F933F938F939F93AF93BF938091C9
:10057000460190914701A0914801B0914901309105
:100580004E01232F2D5F2D3720F40196A11DB11DA3
:1005900005C0232F2A570296A11DB11D20934E019D
:1005A0008093460190934701A0934801B09349017D
:1005B00080914A0190914B01A0914C01B0914D0165
:1005C0000196A11DB11D80934A0190934B01A09308
:1005D0004C01B0934D01BF91AF919F918F913F918D
:1005E0002F910F900FBE0F901F9018950F931F9390
:1005F0008FB7F8940091460110914701209148016E
:10060000309149018FBFB801C9011F910F91089521
:10061000789484B5826084BD84B5816084BD85B5DD
:10062000826085BD85B5816085BDEEE6F0E08081A4
:1006300081608083E1E8F0E01082808182608083C5
:10064000808181608083E0E8F0E080818160808348
:10065000E1EBF0E0808184608083E0EBF0E080817A
:1006600081608083EAE7F0E080818460808380811C
:1006700082608083808181608083808180688083C4
:100680001092C1000895833069F028F48130A1F000
:10069000823011F514C08630B1F08730C1F084305B
:1006A000D9F404C0809180008F7703C080918000CE
:1006B0008F7D80938000089584B58F7702C084B5C4
:1006C0008F7D84BD08958091B0008F7703C08091A5
:1006D000B0008F7D8093B0000895CF93DF9390E0BA
:1006E000FC01E458FF4F4491FC01E057FF4F849117
:1006F000882341F190E0880F991FFC01E255FF4FDC
:1007000025913491D9018C559F4FFC01859194918D
:10071000C82FD92F9FB7F8948C91611106C04095CE
:1007200084238C938881842308C0623041F4242F71
:10073000209582238C938881842B888302C0842B0C
:100740008C939FBFDF91CF9108950F931F93CF9309
:10075000DF931F92CDB7DEB7282F30E0F901E859BB
:10076000FF4F8491F901E458FF4F1491F901E057CC
:10077000FF4F04910023D1F0882321F069830E9468
:1007800043036981E02FF0E0EE0FFF1FEC55FF4FB0
:1007900085919491DC019FB7F8948C91611103C00D
:1007A0001095812301C0812B8C939FBF0F90DF9107
:1007B000CF911F910F9108958E3008F08E50877061
:1007C0002091180140E4249F90011124822B8093F2
:1007D0007C0080917A00806480937A0080917A0016
:1007E00086FDFCCF2091780030917900932F80E036
:1007F000AC01422B9A01C90108951F93CF93DF9357
:10080000182FEB0161E00E946D03209711F460E066
:1008100004C0CF3FD10539F461E0812FDF91CF9142
:100820001F910C94A503E12FF0E0E859FF4FE491EC
:10083000E330B9F028F4E13051F0E230B1F50CC00A
:10084000E63019F1E73049F1E43079F514C084B5A8
:10085000806884BDC7BD2EC084B5806284BDC8BD1C
:1008600029C080918000806880938000D0938900A7
:10087000C09388001FC080918000806280938000B8
:10088000D0938B00C0938A0015C08091B00080681F
:100890008093B000C093B3000DC08091B00080621F
:1008A0008093B000C093B40005C0C038D1050CF0EF
:1008B000B3CFADCFDF91CF911F910895FC01848517
:1008C0009585FC01E05CFF4F20813181FC01EE5BEE
:1008D000FF4F80819181281B390B2F733327C9016A
:1008E0000895FC0184859585FC01E05CFF4F408103
:1008F0005181FC01EE5BFF4F20813181421753078C
:1009000041F00190F081E02DE80FF91F208130E0E7
:1009100002C02FEF3FEFC9010895FC018485958542
:10092000FC01E05CFF4F40815181FC01EE5BFF4F19
:10093000208131814217530781F0A081B181A80F36
:10094000B91F8C91208131812F5F3F4F2F73332747
:1009500031832083282F30E002C02FEF3FEFC90101
:100960000895FC0186859785FC01E05CFF4FDC0162
:10097000AE5BBF4F408151812D913C911197421741
:100980005307C1F70895CF93DF93FC0186859785C0
:10099000DC01A05CBF4F2D913C9111972F5F3F4F21
:1009A0002F733327EC01CE5BDF4F48815981241729
:1009B0003507D9F30D90BC91A02DA80FB91F6C93EA
:1009C000A685B785A05CBF4F11963C932E93A68950
:1009D000B7892C9181E090E0058C02C0880F991FA7
:1009E0000A94E2F7282B2C9381E090E0DF91CF91DD
:1009F000089508951F920F920FB60F9211242F930E
:100A00003F934F938F939F93EF93FF934091C60033
:100A10008091F2019091F30101968F7399272091B3
:100A2000F4013091F5018217930759F0E091F2013A
:100A3000F091F301EE54FE4F40839093F3018093C5
:100A4000F201FF91EF919F918F914F913F912F91E3
:100A50000F900FBE0F901F9018958FE491E00E94A9
:100A60005E04892B11F00C94F90408951F920F92E3
:100A70000FB60F9211242F933F938F939F93EF9371
:100A8000FF932091AE013091AF018091B001909120
:100A9000B1012817390731F48091C1008F7D80930F
:100AA000C10014C0E091B001F091B101E259FE4FD4
:100AB00020818091B0019091B10101968F739927A7
:100AC0009093B1018093B0012093C600FF91EF9104
:100AD0009F918F913F912F910F900FBE0F901F907C
:100AE0001895CF92DF92EF92FF92CF93DF93EC01B4
:100AF0006A017B01411581EE580761057105F9F026
:100B0000EC89FD8981E090E00E8C02C0880F991F6E
:100B10000A94E2F7808360E079E08DE390E0A7013A
:100B200096010E94790A21503109410951095695CF
:100B3000479537952795211580E1380798F0EC897E
:100B4000FD89108260E874E88EE190E0A7019601CB
:100B50000E94790A2150310941095109569547955A
:100B600037952795E889F9893083EA89FB892083BD
:100B7000EE89FF89408181E090E09C010A8C02C0EF
:100B8000220F331F0A94E2F7422B4083EE89FF893C
:100B900040819C010B8C02C0220F331F0A94E2F7A4
:100BA000422B4083EE89FF8940819C010C8C02C05E
:100BB000220F331F0A94E2F7422B4083EE89FF890C
:100BC00020810D8C02C0880F991F0A94E2F780954E
:100BD00082238083DF91CF91FF90EF90DF90CF90C1
:100BE0000895109252011092510188EE93E0A0E016
:100BF000B0E08093530190935401A0935501B093BA
:100C000056018DE191E09093500180934F0182EB6A
:100C100091E090935C0180935B018EE691E090936C
:100C20005E0180935D0185EC90E09093600180937C
:100C30005F0184EC90E0909362018093610180EC0D
:100C400090E0909364018093630181EC90E0909335
:100C500066018093650186EC90E090936801809333
:100C6000670184E08093690183E080936A0187E0F3
:100C700080936B0185E080936C0181E080936D012E
:100C80000895CF92DF92EF92FF920F931F93CF932D
:100C9000DF936C01EB017A01E60EF71E00E010E035
:100CA0000BC06991D601ED91FC910190F081E02D8E
:100CB000C6010995080F191FCE15DF0591F7C80168
:100CC000DF91CF911F910F91FF90EF90DF90CF9028
:100CD0000895DB010D900020E9F7AD014150510965
:100CE000461B570BDC01ED91FC910280F381E02D56
:100CF0000994DC01ED91FC910190F081E02D0994C3
:100D00000F931F93CF93DF93EC016DE00E94790660
:100D10008C016AE0CE010E9479069C01200F311FF0
:100D2000C901DF91CF911F910F9108954F925F926A
:100D30006F927F929F92AF92BF92CF92DF92EF928B
:100D4000FF920F931F93CF93DF93CDB7DEB7A19799
:100D50000FB6F894DEBF0FBECDBF5C016A017B0108
:100D6000922E19A281E0821710F08AE0982E8E014F
:100D70000F5D1F4F492C512C612C712CC701B601FE
:100D8000A30192010E94790A8C2D929E8019112450
:100D9000015011098A3014F4805D01C0895CF801AA
:100DA000808369017A01C114D104E104F10431F7AF
:100DB000B801C5010E946906A1960FB6F894DEBF7E
:100DC0000FBECDBFDF91CF911F910F91FF90EF909C
:100DD000DF90CF90BF90AF909F907F906F905F908B
:100DE0004F900895CF92DF92EF92FF920F931F934F
:100DF000CF93DF93EC016A017B012115310579F472
:100E0000E881F9810190F081E02D642FDF91CF918D
:100E10001F910F91FF90EF90DF90CF9009942A30AF
:100E2000310519F477FD0EC02AE0B701A601CE0105
:100E3000DF91CF911F910F91FF90EF90DF90CF90B6
:100E40000C9496066DE20E9479068C014427552782
:100E5000BA014C195D096E097F092AE0CE010E9492
:100E60009606080F191FC801DF91CF911F910F91AE
:100E7000FF90EF90DF90CF9008957F928F929F9296
:100E8000AF92BF92CF92DF92EF92FF920F931F9398
:100E9000CF93DF938C014A015B01F22E20E030E01A
:100EA000A901C501B4010E94B30887FF0AC06DE221
:100EB000C8010E947906EC01B7FAB094B7F8B09473
:100EC00002C0C0E0D0E0E12C60E070E080E09FE391
:100ED00007C020E030E040E251E40E94B708E3940C
:100EE000EF10F7CF262F372F482F592FC501B40108
:100EF0000E944F08762E872E982EA92E0E94240934
:100F0000B62EC72ED82EE92E0E9450099B01AC01A7
:100F1000672D782D892D9A2D0E944E08A62E972E8A
:100F2000882E792E2AE04B2D5C2D6D2D7E2DC8014B
:100F30000E949606C80FD91FFF20B9F169E271E03F
:100F4000C8010E946906C80FD91F2FC020E030E0F9
:100F500040E251E46A2D792D882D972D0E94060AD2
:100F6000762EC72ED82EE92E0E941F094B01AA24E7
:100F700097FCA094BA2C2AE030E0B501A401C80186
:100F80000E94F206C80FD91FC501B4010E94520980
:100F90009B01AC01672D7C2D8D2D9E2D0E944E084E
:100FA000A62E972E882E792EFA94F110CFCFCE014F
:100FB000DF91CF911F910F91FF90EF90DF90CF9035
:100FC000BF90AF909F908F907F9008950F931F9345
:100FD000CF93DF93EC010E943D078C01CE010E946C
:100FE00080069801280F391FC901DF91CF911F9109
:100FF0000F9108950E9408030E948800CDE2D5E079
:101000000E949A012097E1F30E942D05F9CF4F929B
:101010005F926F927F92AF92BF92CF92DF92EF92E8
:10102000FF920F931F93CF93DF93CDB7DEB72901C4
:101030003A01621B730B840B950B29893A894B8902
:101040005C892A193B094C095D09298B3A8B4B8B2A
:101050005C8B9B01AC0169897A898B899C890E9490
:10106000690AE418F50806091709A80197010E9402
:101070009B0A2A0D3B1D4C1D5D1DB901CA01DF9164
:10108000CF911F910F91FF90EF90DF90CF90BF9085
:10109000AF907F906F905F904F9008955058BB270E
:1010A000AA270ED075C166D130F06BD120F031F493
:1010B0009F3F11F41EF45BC10EF4E095E7FB51C1B4
:1010C000E92F77D180F3BA17620773078407950772
:1010D00018F071F49EF58FC10EF4E0950B2EBA2F27
:1010E000A02D0B01B90190010C01CA01A00111242E
:1010F000FF27591B99F0593F50F4503E68F11A16DA
:10110000F040A22F232F342F4427585FF3CF46956A
:1011100037952795A795F0405395C9F77EF41F168C
:10112000BA0B620B730B840BBAF09150A1F0FF0F56
:10113000BB1F661F771F881FC2F70EC0BA0F621F42
:10114000731F841F48F4879577956795B795F79532
:101150009E3F08F0B3CF9395880F08F09927EE0FC4
:10116000979587950895D9D008F481E008950CD01B
:101170000FC107D140F0FED030F021F45F3F19F0ED
:10118000F0C0511139C1F3C014D198F39923C9F3B8
:101190005523B1F3951B550BBB27AA27621773077D
:1011A000840738F09F5F5F4F220F331F441FAA1F31
:1011B000A9F333D00E2E3AF0E0E830D091505040F1
:1011C000E695001CCAF729D0FE2F27D0660F771F9F
:1011D000881FBB1F261737074807AB07B0E809F081
:1011E000BB0B802DBF01FF2793585F4F2AF09E3F16
:1011F000510568F0B6C000C15F3FECF3983EDCF3E8
:10120000869577956795B795F7959F5FC9F7880F8E
:10121000911D9695879597F90895E1E0660F771FE0
:10122000881FBB1F621773078407BA0720F0621B71
:10123000730B840BBA0BEE1F88F7E095089504D06A
:101240006894B111D9C00895BCD088F09F5790F030
:10125000B92F9927B751A0F0D1F0660F771F881FDB
:10126000991F1AF0BA95C9F712C0B13081F0C3D0F6
:10127000B1E00895C0C0672F782F8827B85F39F094
:10128000B93FCCF3869577956795B395D9F73EF43A
:1012900090958095709561957F4F8F4F9F4F0895E2
:1012A000E89409C097FB3EF4909580957095619500
:1012B0007F4F8F4F9F4F9923A9F0F92F96E9BB27B6
:1012C0009395F695879577956795B795F111F8CF32
:1012D000FAF4BB0F11F460FF1BC06F5F7F4F8F4F9D
:1012E0009F4F16C0882311F096E911C0772321F093
:1012F0009EE8872F762F05C0662371F096E8862F2B
:1013000070E060E02AF09A95660F771F881FDAF781
:10131000880F9695879597F90895990F0008550FAE
:10132000AA0BE0E8FEEF16161706E807F907C0F06B
:1013300012161306E407F50798F0621B730B840B73
:10134000950B39F40A2661F0232B242B252B21F44D
:1013500008950A2609F4A140A6958FEF811D811DED
:10136000089597F99F6780E870E060E008959FEF27
:1013700080EC089500240A9416161706180609062C
:10138000089500240A9412161306140605060895FB
:10139000092E0394000C11F4882352F0BB0F40F483
:1013A000BF2B11F460FF04C06F5F7F4F8F4F9F4FC3
:1013B000089557FD9058440F551F59F05F3F71F045
:1013C0004795880F97FB991F61F09F3F79F08795AC
:1013D0000895121613061406551FF2CF4695F1DF35
:1013E00008C0161617061806991FF1CF86957105C5
:1013F000610508940895E894BB2766277727CB01F9
:1014000097F908958ADF08F48FEF08950BD0C0CFC5
:10141000B1DF28F0B6DF18F0952309F0A2CFA7CFEF
:101420001124EACFC6DFA0F3959FD1F3950F50E0CA
:10143000551F629FF001729FBB27F00DB11D639F86
:10144000AA27F00DB11DAA1F649F6627B00DA11D2C
:10145000661F829F2227B00DA11D621F739FB00DD2
:10146000A11D621F839FA00D611D221F749F332742
:10147000A00D611D231F849F600D211D822F762FDB
:101480006A2F11249F5750408AF0E1F088234AF0D8
:10149000EE0FFF1FBB1F661F771F881F9150504024
:1014A000A9F79E3F510570F05CCFA6CF5F3FECF3EC
:1014B000983EDCF3869577956795B795F795E79510
:1014C0009F5FC1F7FE2B880F911D9695879597F921
:1014D0000895DB018F939F930E94B70ABF91AF914C
:1014E000A29F800D911DA39F900DB29F900D11247E
:1014F0000895A1E21A2EAA1BBB1BFD010DC0AA1F55
:10150000BB1FEE1FFF1FA217B307E407F50720F06C
:10151000A21BB30BE40BF50B661F771F881F991FE7
:101520001A9469F760957095809590959B01AC0130
:10153000BD01CF010895052E97FB16F4009407D046
:1015400057FD0DD00E94790A07FC09D07EF49095D2
:101550008095709561957F4F8F4F9F4F089550955F
:101560004095309521953F4F4F4F5F4F08950E9412
:10157000C80AA59F900DB49F900DA49F800D911D4A
:1015800011240895EE0FFF1F0590F491E02D0994AA
:10159000A29FB001B39FC001A39F01D0B29F700D65
:0C15A000811D1124911D0895F894FFCFC7
:1015AC00022B073DFD117A3F8FF2F9440004030032
:1015BC0004000D00030005000100000000C30441FD
:0C15CC00065E048D047104B1042E0000C2
:00000001FF
