:100000000C945F000C9487000C9487000C9487007C
:100010000C9487000C9487000C9487000C94870044
:100020000C9487000C9487000C9487000C94870034
:100030000C9487000C9487000C9487000C94870024
:100040000C9411020C9487000C945F040C949B0494
:100050000C9487000C9487000C9487000C94870004
:100060000C9487000C948700000000070002010038
:100070000003040600000000000000000102040864
:100080001020408001020408102001020408102002
:10009000040404040404040402020202020203032E
:1000A0000303030300000000250028002B000000CC
:1000B0000000240027002A00F3015605090211243C
:1000C0001FBECFEFD8E0DEBFCDBF11E0A0E0B1E0B2
:1000D000E8E1F6E102C005900D92AC34B107D9F722
:1000E00012E0ACE4B1E001C01D92AA31B107E1F722
:1000F00010E0CCEBD0E004C02297FE010E9479080A
:10010000C83BD107C9F70E9459060C94FF0A0C940A
:10011000000061E080910C010E94D20261E08091B8
:100120000E010E94D20261E0809110010E94D20271
:1001300060E080910A010E94D20260E08091080193
:100140000E94D20240E855E260E070E08FE691E064
:100150000E94D60463E171E08FE691E00C944506BD
:10016000BC01809110010E94620360E070E0809108
:100170000E010C946203CF93DF93EC0160E070E01A
:10018000809110010E946203BE0180910E01DF91F7
:10019000CF910C946203CF93DF93EC0160E070E0A9
:1001A000809110010E946203BE0180910E01DF91D7
:1001B000CF910C9462037F928F929F92AF92BF92E5
:1001C000CF92DF92EF92FF920F931F93CF93DF9323
:1001D000CDB7DEB727970FB6F894DEBF0FBECDBF01
:1001E00080910A010E94410380329340C4F561E08E
:1001F00080910C010E940A030E945B020091600141
:10020000109161012091620130916301601B710BBB
:10021000820B930B60935C0170935D0180935E0190
:1002200090935F010E945B02609360017093610193
:10023000809362019093630180915C0190915D01D4
:10024000A0915E01B0915F014597A105B10560F0F5
:100250006EE171E08FE691E00E94450605C060E026
:1002600080910C010E940A03809108010E944103C1
:100270009093070180930601812C44E0942E77240B
:100280007A9446C06FE671E0CE0101960E94960610
:10029000BE016F5F7F4F83E591E00E943E07CE0174
:1002A00001960E94B00683E591E00E94BF07643F7B
:1002B000714081059105F4F483E591E00E94BF0748
:1002C0001F921F921F927F92A12CB12C650114E600
:1002D000E12EF12C00E010E020E030E0A9010E94C6
:1002E000CB0770935B0160935A010F900F900F90B2
:1002F0000F9008C08FEF90E00E94BB009092070122
:100300008092060163E571E08FE691E00E9431067C
:100310008FE691E00E94C303181619060CF4B2CFC1
:100320006091060170910701633371053CF0809183
:100330005A0190915B010E94B00041C0CB014397EC
:100340004F9758F46A5D7E4F8CE491E00E94550708
:1003500080E090E00E94CB0032C0809108010E94B2
:100360004103429764F56091060170910701882767
:1003700077FD8095982F1F921F921F922FEF2F933A
:10038000A12CB12C650112E1E12EF12C00E010E06E
:100390002CE030E040E050E00E94CB077093650114
:1003A00060936401CB010E94BB0061E371E08FE6C2
:1003B00091E00E9445060F900F900F900F902796A6
:1003C0000FB6F894DEBF0FBECDBFDF91CF911F9166
:1003D0000F91FF90EF90DF90CF90BF90AF909F90E4
:1003E0008F907F9008950E945B02609360017093EC
:1003F0006101809362019093630160E371E083E5A2
:1004000091E00E94210760E371E08CE491E00C949C
:1004100021078CE491E00E94B00683E591E00C9402
:10042000B0061F920F920FB60F9211242F933F9395
:100430008F939F93AF93BF938091660190916701D3
:10044000A0916801B091690130916E01232F2D5F59
:100450002D3720F40196A11DB11D05C0232F2A5769
:100460000296A11DB11D20936E01809366019093A9
:100470006701A0936801B093690180916A0190912E
:100480006B01A0916C01B0916D010196A11DB11D90
:1004900080936A0190936B01A0936C01B0936D01FE
:1004A000BF91AF919F918F913F912F910F900FBE70
:1004B0000F901F9018950F931F938FB7F89400918A
:1004C00066011091670120916801309169018FBF29
:1004D000B801C9011F910F910895789484B5826085
:1004E00084BD84B5816084BD85B5826085BD85B5D8
:1004F000816085BDEEE6F0E0808181608083E1E887
:10050000F0E01082808182608083808181608083BE
:10051000E0E8F0E0808181608083E1EBF0E08081C1
:1005200084608083E0EBF0E0808181608083EAE793
:10053000F0E080818460808380818260808380811C
:10054000816080838081806880831092C1000895DB
:10055000833069F028F48130A1F0823011F514C0A5
:100560008630B1F08730C1F08430D9F404C0809176
:1005700080008F7703C0809180008F7D8093800002
:10058000089584B58F7702C084B58F7D84BD0895AA
:100590008091B0008F7703C08091B0008F7D8093F1
:1005A000B0000895CF93DF9390E0FC01E458FF4F33
:1005B0004491FC01E057FF4F8491882341F190E082
:1005C000880F991FFC01E255FF4F25913491D90105
:1005D0008C559F4FFC0185919491C82FD92F9FB7BF
:1005E000F8948C91611106C0409584238C93888186
:1005F000842308C0623041F4242F209582238C93F9
:100600008881842B888302C0842B8C939FBFDF91C9
:10061000CF9108950F931F93CF93DF931F92CDB780
:10062000DEB7282F30E0F901E859FF4F8491F90136
:10063000E458FF4F1491F901E057FF4F0491002354
:10064000D1F0882321F069830E94A8026981E02FFC
:10065000F0E0EE0FFF1FEC55FF4F85919491DC0108
:100660009FB7F8948C91611103C01095812301C04C
:10067000812B8C939FBF0F90DF91CF911F910F9192
:1006800008958E3008F08E5087702091120140E45A
:10069000249F90011124822B80937C0080917A000A
:1006A000806480937A0080917A0086FDFCCF20914F
:1006B000780030917900932F80E0AC01422B9A01B1
:1006C000C90108951F93CF93DF93182FEB0161E0C9
:1006D0000E94D202209711F460E004C0CF3FD10500
:1006E00039F461E0812FDF91CF911F910C940A03BF
:1006F000E12FF0E0E859FF4FE491E330B9F028F43E
:10070000E13051F0E230B1F50CC0E63019F1E730DC
:1007100049F1E43079F514C084B5806884BDC7BD63
:100720002EC084B5806284BDC8BD29C08091800080
:10073000806880938000D0938900C09388001FC098
:1007400080918000806280938000D0938B00C09362
:100750008A0015C08091B00080688093B000C0937B
:10076000B3000DC08091B00080628093B000C09350
:10077000B40005C0C038D1050CF0B3CFADCFDF91C8
:10078000CF911F910895FC0184859585FC01E05C63
:10079000FF4F20813181FC01EE5BFF4F8081918111
:1007A000281B390B2F733327C9010895FC01848559
:1007B0009585FC01E05CFF4F40815181FC01EE5BBF
:1007C000FF4F208131814217530741F00190F081A2
:1007D000E02DE80FF91F208130E002C02FEF3FEF3E
:1007E000C9010895FC0184859585FC01E05CFF4FFB
:1007F00040815181FC01EE5BFF4F20813181421726
:10080000530781F0A081B181A80FB91F8C9120817D
:1008100031812F5F3F4F2F73332731832083282F60
:1008200030E002C02FEF3FEFC9010895FC0186853B
:100830009785FC01E05CFF4FDC01AE5BBF4F408160
:1008400051812D913C91119742175307C1F708959B
:10085000CF93DF93FC0186859785DC01A05CBF4FB9
:100860002D913C9111972F5F3F4F2F733327EC0150
:10087000CE5BDF4F4881598124173507D9F30D909E
:10088000BC91A02DA80FB91F6C93A685B785A05C5D
:10089000BF4F11963C932E93A689B7892C9181E086
:1008A00090E0058C02C0880F991F0A94E2F7282B6C
:1008B0002C9381E090E0DF91CF91089508951F92ED
:1008C0000F920FB60F9211242F933F934F938F9354
:1008D0009F93EF93FF934091C600809112029091F5
:1008E000130201968F7399272091140230911502FB
:1008F0008217930759F0E0911202F0911302EE5221
:10090000FE4F40839093130280931202FF91EF9168
:100910009F918F914F913F912F910F900FBE0F900C
:100920001F9018958FE691E00E94C303892B11F068
:100930000C945E0408951F920F920FB60F9211242B
:100940002F933F938F939F93EF93FF932091CE012B
:100950003091CF018091D0019091D10128173907B2
:1009600031F48091C1008F7D8093C10014C0E0916B
:10097000D001F091D101E257FE4F20818091D0014A
:100980009091D10101968F7399279093D101809313
:10099000D0012093C600FF91EF919F918F913F91DD
:1009A0002F910F900FBE0F901F901895CF92DF924E
:1009B000EF92FF92CF93DF93EC016A017B01411527
:1009C00081EE580761057105F9F0EC89FD8981E038
:1009D00090E00E8C02C0880F991F0A94E2F7808382
:1009E00060E079E08DE390E0A70196010E942D0878
:1009F0002150310941095109569547953795279559
:100A0000211580E1380798F0EC89FD89108260E8B3
:100A100074E88EE190E0A70196010E942D08215014
:100A20003109410951095695479537952795E88928
:100A3000F9893083EA89FB892083EE89FF89408127
:100A400081E090E09C010A8C02C0220F331F0A94BF
:100A5000E2F7422B4083EE89FF8940819C010B8C99
:100A600002C0220F331F0A94E2F7422B4083EE8923
:100A7000FF8940819C010C8C02C0220F331F0A9415
:100A8000E2F7422B4083EE89FF8920810D8C02C062
:100A9000880F991F0A94E2F7809582238083DF9163
:100AA000CF91FF90EF90DF90CF9008951092720158
:100AB0001092710188EE93E0A0E0B0E080937301A2
:100AC00090937401A0937501B09376018FE391E048
:100AD0009093700180936F0182ED91E090937C017F
:100AE00080937B018EE891E090937E0180937D015D
:100AF00085EC90E09093800180937F0184EC90E0FE
:100B0000909382018093810180EC90E09093840126
:100B10008093830181EC90E090938601809385011E
:100B200086EC90E0909388018093870184E0809325
:100B3000890183E080938A0187E080938B0185E0BF
:100B400080938C0181E080938D010895CF92DF9294
:100B5000EF92FF920F931F93CF93DF936C01EB0102
:100B60007A01E60EF71E00E010E00BC06991D60195
:100B7000ED91FC910190F081E02DC6010995080FDF
:100B8000191FCE15DF0591F7C801DF91CF911F9195
:100B90000F91FF90EF90DF90CF900895DB010D90C3
:100BA0000020E9F7AD0141505109461B570BDC010C
:100BB000ED91FC910280F381E02D0994AF92BF92F8
:100BC000CF92DF92EF92FF920F931F93CF93DF9319
:100BD0007C016B0100E010E0C0E0D0E011C0D70163
:100BE000ED91FC91A080B180B801C6010E94AE07D2
:100BF000682FC701F5010995C80FD91F0F5F1F4F57
:100C0000D60114968D919C9115970817190738F302
:100C1000CE01DF91CF911F910F91FF90EF90DF9068
:100C2000CF90BF90AF900895DC01ED91FC910190C1
:100C3000F081E02D09940F931F93CF93DF93EC0184
:100C40006DE00E9414068C016AE0CE010E94140639
:100C50009C01200F311FC901DF91CF911F910F918E
:100C600008950F931F93CF93DF93EC010E94DE054D
:100C70008C01CE010E941B069C01200F311FC9016F
:100C8000DF91CF911F910F9108950F931F93CF93F1
:100C9000DF93EC010E94CE058C01CE010E941B0661
:100CA0009801280F391FC901DF91CF911F910F9132
:100CB00008950E946D020E948900C2E9D4E00E945A
:100CC000DB002097E1F30E949204F9CF0F931F936A
:100CD000CF93DF93EC010E945B02688779878A8754
:100CE0009B87E881F9810680F781E02DCE01099587
:100CF0009C0197FF15C00E945B02088519852A8513
:100D00003B85601B710B820B930B0C811D812E8127
:100D10003F81601771078207930718F32FEF3FEFAA
:100D2000C901DF91CF911F910F9108950F931F93E8
:100D3000CF93DF93EC018B0160E371E00E94210708
:100D400004C0682FCE010E949B07C8010E9466065E
:100D500097FFF7CFCE01DF91CF911F910F910895AB
:100D6000FC01808191810C941809CF93DF93EC01F1
:100D700088819981009711F00E94180919821882C0
:100D80001D821C821B821A82DF91CF9108950F93DE
:100D90001F93CF93DF93EC018B016F5F7F4F8881AF
:100DA00099810E94B409009731F0998388831B834D
:100DB0000A8381E001C080E0DF91CF911F910F9104
:100DC0000895CF93DF93EC0188819981892B31F0CD
:100DD0008A819B818617970708F00CC0CE010E947C
:100DE000C706882349F08C819D81892B19F4E881FD
:100DF000F981108281E001C080E0DF91CF910895F8
:100E0000EF92FF920F931F93CF93DF93EC017B013F
:100E10008A01BA010E94E106811104C0CE010E943C
:100E2000B50607C01D830C83B701888199810E9494
:100E3000AC0ACE01DF91CF911F910F91FF90EF90FF
:100E40000895DC0111961C921E9213961C921E921C
:100E5000129715961C921E92149716961C92611565
:100E6000710559F0DB010D900020E9F7AD0141500B
:100E70005109461B570B0C9400070895CF93DF933D
:100E8000EC01FB018617970761F0608171816115A4
:100E9000710529F0448155810E94000702C00E941B
:100EA000B506CE01DF91CF910895CF93DF93D82F70
:100EB000C92F6115710561F0DB010D900020E9F784
:100EC000AD0141505109461B570B0E94000702C05B
:100ED0000E94B5068D2F9C2FDF91CF910895EF9240
:100EE000FF920F931F93CF93DF93EC017B010C8153
:100EF0001D816115710511F480E016C04115510581
:100F000091F0040F151FB8010E94E1068823A1F398
:100F1000288139818C819D81B701820F931F0E94A6
:100F2000AC0A1D830C8381E0DF91CF911F910F915B
:100F3000FF90EF900895CF93DF9300D0CDB7DEB749
:100F400069831A8241E050E0BE016F5F7F4F0E94CB
:100F50006F070F900F90DF91CF910895FC012481CE
:100F600035816217730748F480819181009729F0D9
:100F7000FC01E60FF71F8081089580E00895FC01D1
:100F800080819181009711F00C947C0A60E070E000
:100F900080E090E008954F925F926F927F92AF92BF
:100FA000BF92CF92DF92EF92FF920F931F93CF9356
:100FB000DF93CDB7DEB729013A01621B730B840BB7
:100FC000950B29893A894B895C892A193B094C0977
:100FD0005D09298B3A8B4B8B5C8B9B01AC0169893A
:100FE0007A898B899C890E941D08E418F5080609F6
:100FF0001709A80197010E944F082A0D3B1D4C1D9F
:101000005D1DB901CA01DF91CF911F910F91FF9032
:10101000EF90DF90CF90BF90AF907F906F905F90F8
:101020004F9008950E946B08A59F900DB49F900D5E
:10103000A49F800D911D11240895DB018F939F9330
:101040000E941208BF91AF91A29F800D911DA39F96
:10105000900DB29F900D11240895A1E21A2EAA1BA3
:10106000BB1BFD010DC0AA1FBB1FEE1FFF1FA21758
:10107000B307E407F50720F0A21BB30BE40BF50B55
:10108000661F771F881F991F1A9469F760957095DE
:10109000809590959B01AC01BD01CF010895052E6F
:1010A00097FB16F4009407D057FD0DD00E942D0831
:1010B00007FC09D07EF490958095709561957F4FDF
:1010C0008F4F9F4F089550954095309521953F4FF4
:1010D0004F4F5F4F0895A29FB001B39FC001A39FE0
:1010E00001D0B29F700D811D1124911D0895EE0F46
:1010F000FF1F0590F491E02D09940F931F93CF9358
:10110000DF938230910510F482E090E0E0911802C4
:10111000F091190220E030E0C0E0D0E023C040812F
:10112000518148175907A8F04817590761F482817F
:101130009381209719F09B838A832EC09093190284
:101140008093180229C02115310529F04217530751
:1011500010F0A90102C0BE01DF0102811381EF017D
:101160009A01F8013097D9F62115310509F1281BAC
:10117000390B2430310590F412968D919C91139780
:101180006115710521F0FB019383828304C0909364
:10119000190280931802FD01329644C0FD01E20F4E
:1011A000F31F81939193225031092D933C933AC0C0
:1011B0002091160230911702232B41F42091020155
:1011C0003091030130931702209316022091000101
:1011D000309101012115310541F42DB73EB7409101
:1011E000040150910501241B350BE0911602F0918A
:1011F0001702E217F307A0F42E1B3F0B281739073D
:1012000078F0AC014E5F5F4F2417350748F04E0F62
:101210005F1F50931702409316028193919302C06F
:10122000E0E0F0E0CF01DF91CF911F910F910895A1
:10123000EF92FF920F931F93CF93DF93009709F4E0
:101240008EC0DC01129713961C921E921297E090AA
:101250001802F0901902E114F10489F42D913C91E7
:101260001197280F391F809116029091170282174B
:10127000930789F5B0931702A093160270C0E70197
:1012800020E030E001C0EA01CA17DB0738F44A81E8
:101290005B819E0141155105B1F722C0AC0142505E
:1012A0005109FA01D383C28300811181BC01600F0F
:1012B000711F6C177D0761F468817981600F711F60
:1012C0006E5F7F4F718360836A817B8173836283EA
:1012D0002115310529F4B0931902A09318023FC0DB
:1012E000F901B383A283E90149915991C40FD51F34
:1012F000AC17BD0771F4DC019E918E91840F951F90
:1013000002969183808312968D919C91139793837B
:101310008283A0E0B0E002C0D7017C01F7018281A6
:1013200093810097C9F7C701029620813181820F0E
:10133000931F20911602309117022817390779F46C
:10134000109729F4109219021092180204C01396F3
:101350001C921E921297F0921702E0921602CDB7DD
:10136000DEB7E6E00C94F00AA0E0B0E0EAEBF9E0CA
:101370000C94CE0AEC01009729F4CB010E947D0861
:10138000EC01B4C0DC01A60FB71FFC013297AE1709
:10139000BF0718F4C0E0D0E0A9C000811181061792
:1013A0001707B0F00530110508F4A0C0C801049774
:1013B0008617970708F49AC002501109061B170BED
:1013C0000D931D9371836083CD010E9418098EC017
:1013D0006B01C01AD10A7C01E00EF11EE0911802E7
:1013E000F091190220E030E080E090E048C0EE1576
:1013F000FF05D1F580809180540142E0A40EB11C1C
:10140000AC14BD0488F17401EC18FD08670122E0FA
:10141000C20ED11C9E012250310945E0C416D104F0
:1014200078F04281538113965C934E9312971196F4
:10143000FC92EE92F901718360833A2F2B2F09C041
:101440000E5F1F4F080D191DD9010D931C9332819A
:101450002381009721F0FC013283238347C030931E
:1014600018022093190242C0808191812817390700
:1014700008F49C0152814381CF01E52FF42F30976E
:1014800009F0B5CF80911602909117028E159F0535
:10149000F1F426173707D8F48091000190910101EB
:1014A000009741F48DB79EB720910401309105015A
:1014B000821B930BA817B90708F06CCFB0931702E3
:1014C000A0931602FE013297718360830FC0CB0197
:1014D0000E947D087C01009709F45CCFA801BE0141
:1014E0000E94A30ACE010E941809E701CE01CDB7E0
:1014F000DEB7ECE00C94EA0A1F93FC0199278827D9
:10150000BC01E89411911032E9F3193010F01E304B
:10151000C8F31B3251F01D3249F4689406C00E9492
:10152000B30A610F711D811D911D119110531A3065
:10153000B0F33EF490958095709561957F4F8F4FF5
:101540009F4F1F910895FB01DC0102C001900D9295
:1015500041505040D8F70895FB01DC0101900D92F5
:101560000020E1F70895592F482F372F262F660FB7
:10157000771F881F991F660F771F881F991F620F9B
:10158000731F841F951F660F771F881F991F08956B
:101590002F923F924F925F926F927F928F929F9283
:1015A000AF92BF92CF92DF92EF92FF920F931F9371
:1015B000CF93DF93CDB7DEB7CA1BDB0B0FB6F89422
:1015C000DEBF0FBECDBF09942A88398848885F8462
:1015D0006E847D848C849B84AA84B984C884DF80D3
:1015E000EE80FD800C811B81AA81B981CE0FD11DB7
:1015F0000FB6F894DEBF0FBECDBFED01089510E029
:10160000CCEBD0E004C0FE010E9479082296CE3BCC
:08161000D107C9F7F894FFCFE0
:1016180000001A0220000004030004000D0003006B
:101628000500016865727720776520676F003A3A90
:1016380076656C7570003A3A646574656E657220FB
:10164800003A3A72657665727361000000000028FE
:0C16580004A605C303F203D60316040029
:00000001FF
