:100000000C945F000C9487000C9487000C9487007C
:100010000C9487000C9487000C9487000C94870044
:100020000C9487000C9487000C9487000C94870034
:100030000C9487000C9487000C9487000C94870024
:100040000C9448020C9487000C9496040C94D204EF
:100050000C9487000C9487000C9487000C94870004
:100060000C9487000C948700000000070002010038
:100070000003040600000000000000000102040864
:100080001020408001020408102001020408102002
:10009000040404040404040402020202020203032E
:1000A0000303030300000000250028002B000000CC
:1000B0000000240027002A002A028D054002112496
:1000C0001FBECFEFD8E0DEBFCDBF11E0A0E0B1E0B2
:1000D000E4EEF6E102C005900D92A235B107D9F722
:1000E00012E0A2E5B1E001C01D92A032B107E1F734
:1000F00010E0CCEBD0E004C02297FE010E94D608AD
:10010000C83BD107C9F70E9446060C94650B0C94B6
:10011000000061E080910C010E94090361E0809180
:100120000E010E94090361E0809110010E94090301
:1001300060E080910A010E94090360E0809108015B
:100140000E94090340E855E260E070E085E791E035
:100150000E940D0563E171E085E791E00E9432069F
:1001600085E791E00C944D04BC01809110010E9440
:10017000990360E070E080910E010C949903CF9395
:10018000DF93EC0160E070E0809110010E94990320
:10019000BE0180910E01DF91CF910C949903CF9312
:1001A000DF93EC0160E070E0809110010E94990300
:1001B000BE0180910E01DF91CF910C9499037F9243
:1001C0008F929F92AF92BF92CF92DF92EF92FF9267
:1001D0000F931F93CF93DF93CDB7DEB727970FB65B
:1001E000F894DEBF0FBECDBF80910A010E94780354
:1001F00080329340C4F561E080910C010E9441037C
:100200000E9492020091660110916701209168019D
:1002100030916901601B710B820B930B609362013B
:100220007093630180936401909365010E94920230
:1002300060936601709367018093680190936901F0
:100240008091620190916301A0916401B091650178
:100250004597A105B10560F06EE171E085E791E099
:100260000E94320605C060E080910C010E944103AB
:10027000809108010E947803909307018093060102
:10028000812C44E0942E77247A947FC044E265E781
:1002900071E0CE0101960E948306BE016F5F7F4F21
:1002A00089E591E00E943907CE0101960E94AB06D4
:1002B00022E030E040E050E069E571E0CE010196D7
:1002C0000E94CB0766E271E0CE0101960E94A90769
:1002D000182FCE0101960E94AB061123B9F180912F
:1002E000060190910701C3970CF44FC042E050E023
:1002F00069E571E0CE0101960E941008CE010196D9
:100300000E941C081F921F921F927F92A12CB12C59
:10031000650114E6E12EF12C00E010E020E030E071
:10032000A9010E9428087093610160936001CE01C9
:1003300001960E94AB0680916001909161010E943C
:10034000B4000F900F900F900F901FC022E030E08C
:1003500040E050E069E571E0CE0101960E94CB07D4
:1003600069E271E0CE0101960E94A907182FCE0123
:1003700001960E94AB06112341F08FEF90E00E949E
:10038000BF00909207018092060185E791E00E94EC
:10039000FA03181619060CF479CF609106017091D2
:1003A0000701CB0143974F9758F4645D7E4F82E578
:1003B00091E00E94500780E090E00E94CF0032C0A0
:1003C000809108010E947803429764F560910601CC
:1003D00070910701882777FD8095982F1F921F92B3
:1003E0001F922FEF2F93A12CB12C650112E1E12E6A
:1003F000F12C00E010E02CE030E040E050E00E9402
:10040000280870936B0160936A01CB010E94BF00C2
:1004100067E371E085E791E00E9432060F900F904C
:100420000F900F9085E791E00E944D0427960FB63C
:10043000F894DEBF0FBECDBFDF91CF911F910F911A
:10044000FF90EF90DF90CF90BF90AF909F908F90F4
:100450007F9008950E9492026093660170936701F5
:10046000809368019093690166E371E089E591E00A
:100470000E941C0766E371E082E591E00C941C0782
:1004800082E591E00E94AB0689E591E00C94AB0611
:100490001F920F920FB60F9211242F933F938F93B9
:1004A0009F93AF93BF9380916C0190916D01A09148
:1004B0006E01B0916F0130917401232F2D5F2D37A4
:1004C00020F40196A11DB11D05C0232F2A570296C5
:1004D000A11DB11D2093740180936C0190936D0157
:1004E000A0936E01B0936F018091700190917101A2
:1004F000A0917201B09173010196A11DB11D80936D
:10050000700190937101A0937201B0937301BF9138
:10051000AF919F918F913F912F910F900FBE0F90B0
:100520001F9018950F931F938FB7F89400916C014B
:1005300010916D0120916E0130916F018FBFB80154
:10054000C9011F910F910895789484B5826084BD8C
:1005500084B5816084BD85B5826085BD85B58160C7
:1005600085BDEEE6F0E0808181608083E1E8F0E027
:100570001082808182608083808181608083E0E856
:10058000F0E0808181608083E1EBF0E08081846035
:100590008083E0EBF0E0808181608083EAE7F0E037
:1005A000808184608083808182608083808181609B
:1005B00080838081806880831092C1000895833099
:1005C00069F028F48130A1F0823011F514C0863032
:1005D000B1F08730C1F08430D9F404C0809180003C
:1005E0008F7703C0809180008F7D80938000089575
:1005F00084B58F7702C084B58F7D84BD08958091C6
:10060000B0008F7703C08091B0008F7D8093B000E1
:100610000895CF93DF9390E0FC01E458FF4F44919D
:10062000FC01E057FF4F8491882341F190E0880F4F
:10063000991FFC01E255FF4F25913491D9018C554A
:100640009F4FFC0185919491C82FD92F9FB7F894A3
:100650008C91611106C0409584238C9388818423FA
:1006600008C0623041F4242F209582238C93888126
:10067000842B888302C0842B8C939FBFDF91CF9102
:1006800008950F931F93CF93DF931F92CDB7DEB7DB
:10069000282F30E0F901E859FF4F8491F901E4581F
:1006A000FF4F1491F901E057FF4F04910023D1F05F
:1006B000882321F069830E94DF026981E02FF0E046
:1006C000EE0FFF1FEC55FF4F85919491DC019FB712
:1006D000F8948C91611103C01095812301C0812B86
:1006E0008C939FBF0F90DF91CF911F910F91089531
:1006F0008E3008F08E5087702091120140E4249FC4
:1007000090011124822B80937C0080917A00806478
:1007100080937A0080917A0086FDFCCF209178004A
:1007200030917900932F80E0AC01422B9A01C901EE
:1007300008951F93CF93DF93182FEB0161E00E9480
:100740000903209711F460E004C0CF3FD10539F4CC
:1007500061E0812FDF91CF911F910C944103E12F34
:10076000F0E0E859FF4FE491E330B9F028F4E130CC
:1007700051F0E230B1F50CC0E63019F1E73049F143
:10078000E43079F514C084B5806884BDC7BD2EC03F
:1007900084B5806284BDC8BD29C080918000806816
:1007A00080938000D0938900C09388001FC08091FF
:1007B0008000806280938000D0938B00C0938A0079
:1007C00015C08091B00080688093B000C093B300E2
:1007D0000DC08091B00080628093B000C093B400DF
:1007E00005C0C038D1050CF0B3CFADCFDF91CF91AC
:1007F0001F910895FC0184859585FC01E05CFF4F05
:1008000020813181FC01EE5BFF4F80819181281BAB
:10081000390B2F733327C9010895FC018485958511
:10082000FC01E05CFF4F40815181FC01EE5BFF4F1A
:10083000208131814217530741F00190F081E02D72
:10084000E80FF91F208130E002C02FEF3FEFC90110
:100850000895FC0184859585FC01E05CFF4F408193
:100860005181FC01EE5BFF4F20813181421753071C
:1008700081F0A081B181A80FB91F8C9120813181B5
:100880002F5F3F4F2F73332731832083282F30E092
:1008900002C02FEF3FEFC9010895FC0186859785BF
:1008A000FC01E05CFF4FDC01AE5BBF4F408151813A
:1008B0002D913C91119742175307C1F70895CF939B
:1008C000DF93FC0186859785DC01A05CBF4F2D91ED
:1008D0003C9111972F5F3F4F2F733327EC01CE5B75
:1008E000DF4F4881598124173507D9F30D90BC910A
:1008F000A02DA80FB91F6C93A685B785A05CBF4F2C
:1009000011963C932E93A689B7892C9181E090E0B3
:10091000058C02C0880F991F0A94E2F7282B2C93AC
:1009200081E090E0DF91CF91089508951F920F929A
:100930000FB60F9211242F933F934F938F939F9352
:10094000EF93FF934091C600809118029091190295
:1009500001968F73992720911A0230911B028217FA
:10096000930759F0E0911802F0911902E852FE4FF6
:1009700040839093190280931802FF91EF919F9109
:100980008F914F913F912F910F900FBE0F901F901D
:10099000189585E791E00E94FA03892B11F00C94D9
:1009A000950408951F920F920FB60F9211242F9362
:1009B0003F938F939F93EF93FF932091D4013091B6
:1009C000D5018091D6019091D7012817390731F4CC
:1009D0008091C1008F7D8093C10014C0E091D60149
:1009E000F091D701EC56FE4F20818091D601909175
:1009F000D70101968F7399279093D7018093D601E1
:100A00002093C600FF91EF919F918F913F912F917D
:100A10000F900FBE0F901F901895CF92DF92EF921C
:100A2000FF92CF93DF93EC016A017B01411581EEC8
:100A3000580761057105F9F0EC89FD8981E090E0C6
:100A40000E8C02C0880F991F0A94E2F7808360E041
:100A500079E08DE390E0A70196010E948A08215079
:100A60003109410951095695479537952795211523
:100A700080E1380798F0EC89FD89108260E874E81D
:100A80008EE190E0A70196010E948A082150310969
:100A9000410951095695479537952795E889F98970
:100AA0003083EA89FB892083EE89FF89408181E0D8
:100AB00090E09C010A8C02C0220F331F0A94E2F7D7
:100AC000422B4083EE89FF8940819C010B8C02C040
:100AD000220F331F0A94E2F7422B4083EE89FF89ED
:100AE00040819C010C8C02C0220F331F0A94E2F754
:100AF000422B4083EE89FF8920810D8C02C0880F34
:100B0000991F0A94E2F7809582238083DF91CF9129
:100B1000FF90EF90DF90CF9008951092780110929F
:100B2000770188EE93E0A0E0B0E0809379019093A4
:100B30007A01A0937B01B0937C0185E491E09093CE
:100B400076018093750188ED91E090938201809306
:100B5000810184E991E0909384018093830185EC85
:100B600090E0909386018093850184EC90E09093CF
:100B700088018093870180EC90E090938A018093B4
:100B8000890181EC90E090938C0180938B0186EC3D
:100B900090E090938E0180938D0184E080938F018B
:100BA00083E08093900187E08093910185E08093BA
:100BB000920181E0809393010895CF92DF92EF92AA
:100BC000FF920F931F93CF93DF936C01EB017A0198
:100BD000E60EF71E00E010E00BC06991D601ED9122
:100BE000FC910190F081E02DC6010995080F191FB5
:100BF000CE15DF0591F7C801DF91CF911F910F91BD
:100C0000FF90EF90DF90CF900895DB010D900020D2
:100C1000E9F7AD0141505109461B570BDC01ED913D
:100C2000FC910280F381E02D0994DC01ED91FC91AF
:100C30000190F081E02D09940F931F93CF93DF93E0
:100C4000EC016DE00E9415068C016AE0CE010E9465
:100C500015069C01200F311FC901DF91CF911F9113
:100C60000F9108950F931F93CF93DF93EC010E9490
:100C700005068C01CE010E941C069801280F391F21
:100C8000C901DF91CF911F910F9108950E94A40295
:100C90000E948900C9ECD4E00E94DF002097E1F3B4
:100CA0000E94C904F9CF0F931F93CF93DF93EC01F8
:100CB0000E949202688779878A879B87E881F981F9
:100CC0000680F781E02DCE0109959C0197FF15C0A4
:100CD0000E949202088519852A853B85601B710B4D
:100CE000820B930B0C811D812E813F816017710750
:100CF0008207930718F32FEF3FEFC901DF91CF91E0
:100D00001F910F910895EF92FF920F931F93CF932E
:100D1000DF93EC018B01E42E66E371E00E941C0777
:100D2000C8010E945306FF24E7FCF09497FD0BC016
:100D30008E159F0541F0682FCE010E949607C801CD
:100D40000E945306F3CFCE01DF91CF911F910F91F7
:100D5000FF90EF900895FC01808191810C947509BA
:100D6000CF93DF93EC0188819981009711F00E9465
:100D70007509198218821D821C821B821A82DF91DA
:100D8000CF9108950F931F93CF93DF93EC018B01C5
:100D90006F5F7F4F888199810E94110A009731F01F
:100DA000998388831B830A8381E001C080E0DF91FF
:100DB000CF911F910F910895CF93DF93EC0188811C
:100DC0009981892B31F08A819B818617970708F0DA
:100DD0000CC0CE010E94C206882349F08C819D81FF
:100DE000892B19F4E881F981108281E001C080E04B
:100DF000DF91CF910895EF92FF920F931F93CF93BE
:100E0000DF93EC017B018A01BA010E94DC068111AB
:100E100004C0CE010E94B00607C01D830C83B70139
:100E2000888199810E94120BCE01DF91CF911F9191
:100E30000F91FF90EF900895DC0111961C921E9285
:100E400013961C921E92129715961C921E9214973E
:100E500016961C926115710559F0DB010D9000206A
:100E6000E9F7AD0141505109461B570B0C94FB06A5
:100E70000895CF93DF93EC01FB018617970761F08C
:100E8000608171816115710529F0448155810E944D
:100E9000FB0602C00E94B006CE01DF91CF910895FB
:100EA000CF93DF93D82FC92F6115710561F0DB0156
:100EB0000D900020E9F7AD0141505109461B570B39
:100EC0000E94FB0602C00E94B0068D2F9C2FDF916E
:100ED000CF910895EF92FF920F931F93CF93DF93DB
:100EE000EC017B010C811D816115710511F480E01D
:100EF00016C04115510591F0040F151FB8010E944D
:100F0000DC068823A1F3288139818C819D81B7017A
:100F1000820F931F0E94120B1D830C8381E0DF91CF
:100F2000CF911F910F91FF90EF900895CF93DF9392
:100F300000D0CDB7DEB769831A8241E050E0BE0130
:100F40006F5F7F4F0E946A070F900F90DF91CF91E4
:100F50000895DC0114962D913C911597232B39F4BB
:100F600081E06115710511F0FB0108C00895DC01F5
:100F7000ED91FC916115710529F481E0908199232F
:100F800049F007C0CF010E94090B9C0181E0232B8F
:100F900009F080E00895BF92CF92DF92EF92FF9226
:100FA0000F931F93CF93DF936C017B01EA018901BB
:100FB0002417350720F48D2FE901042F182F66E33D
:100FC00071E0C6010E941C07D70114968D919C9177
:100FD00015978C179D07C8F08017910708F48C01AE
:100FE000D701ED91FC911197E00FF11FB0801082B5
:100FF0006D917C916C0F7D1FC6010E945007D70137
:10100000ED91FC91E00FF11FB082C601DF91CF910D
:101010001F910F91FF90EF90DF90CF90BF900895B8
:10102000CF93DF93EC01FB01248135810E94CB0734
:10103000CE01DF91CF910895FC01808191810097CD
:1010400011F00C94D90A60E070E080E090E008951F
:101050004F925F926F927F92AF92BF92CF92DF9248
:10106000EF92FF920F931F93CF93DF93CDB7DEB72D
:1010700029013A01621B730B840B950B29893A896C
:101080004B895C892A193B094C095D09298B3A8BEC
:101090004B8B5C8B9B01AC0169897A898B899C891C
:1010A0000E947A08E418F50806091709A8019701B3
:1010B0000E94AC082A0D3B1D4C1D5D1DB901CA01E3
:1010C000DF91CF911F910F91FF90EF90DF90CF9024
:1010D000BF90AF907F906F905F904F9008950E9467
:1010E000C808A59F900DB49F900DA49F800D911DE1
:1010F00011240895DB018F939F930E946F08BF9185
:10110000AF91A29F800D911DA39F900DB29F900D56
:1011100011240895A1E21A2EAA1BBB1BFD010DC0CC
:10112000AA1FBB1FEE1FFF1FA217B307E407F50797
:1011300020F0A21BB30BE40BF50B661F771F881F73
:10114000991F1A9469F760957095809590959B0109
:10115000AC01BD01CF010895052E97FB16F4009454
:1011600007D057FD0DD00E948A0807FC09D07EF4F5
:1011700090958095709561957F4F8F4F9F4F089503
:1011800050954095309521953F4F4F4F5F4F0895B3
:10119000A29FB001B39FC001A39F01D0B29F700D69
:1011A000811D1124911D0895EE0FFF1F0590F491EC
:1011B000E02D09940F931F93CF93DF938230910515
:1011C00010F482E090E0E0911E02F0911F0220E016
:1011D00030E0C0E0D0E023C040815181481759077A
:1011E000A8F04817590761F482819381209719F07C
:1011F0009B838A832EC090931F0280931E0229C076
:101200002115310529F04217530710F0A90102C03A
:10121000BE01DF0102811381EF019A01F8013097CD
:10122000D9F62115310509F1281B390B2430310578
:1012300090F412968D919C9113976115710521F090
:10124000FB019383828304C090931F0280931E024C
:10125000FD01329644C0FD01E20FF31F819391938B
:10126000225031092D933C933AC020911C023091B9
:101270001D02232B41F42091020130910301309390
:101280001D0220931C0220910001309101012115C3
:10129000310541F42DB73EB740910401509105014D
:1012A000241B350BE0911C02F0911D02E217F3079D
:1012B000A0F42E1B3F0B2817390778F0AC014E5FC6
:1012C0005F4F2417350748F04E0F5F1F50931D02E4
:1012D00040931C028193919302C0E0E0F0E0CF01C3
:1012E000DF91CF911F910F910895EF92FF920F938D
:1012F0001F93CF93DF93009709F48EC0DC01129700
:1013000013961C921E921297E0901E02F0901F02FC
:10131000E114F10489F42D913C911197280F391FA4
:1013200080911C0290911D028217930789F5B0935A
:101330001D02A0931C0270C0E70120E030E001C054
:10134000EA01CA17DB0738F44A815B819E01411527
:101350005105B1F722C0AC0142505109FA01D383C3
:10136000C28300811181BC01600F711F6C177D0762
:1013700061F468817981600F711F6E5F7F4F7183A7
:1013800060836A817B81738362832115310529F42F
:10139000B0931F02A0931E023FC0F901B383A28342
:1013A000E90149915991C40FD51FAC17BD0771F4DC
:1013B000DC019E918E91840F951F0296918380830C
:1013C00012968D919C91139793838283A0E0B0E055
:1013D00002C0D7017C01F701828193810097C9F790
:1013E000C701029620813181820F931F20911C0238
:1013F00030911D022817390779F4109729F41092BB
:101400001F0210921E0204C013961C921E92129785
:10141000F0921D02E0921C02CDB7DEB7E6E00C941C
:10142000560BA0E0B0E0E7E1FAE00C94340BEC01DD
:10143000009729F4CB010E94DA08EC01B4C0DC016A
:10144000A60FB71FFC013297AE17BF0718F4C0E014
:10145000D0E0A9C00081118106171707B0F0053050
:10146000110508F4A0C0C80104978617970708F46F
:101470009AC002501109061B170B0D931D9371831F
:101480006083CD010E9475098EC06B01C01AD10A1C
:101490007C01E00EF11EE0911E02F0911F0220E09F
:1014A00030E080E090E048C0EE15FF05D1F5808087
:1014B0009180540142E0A40EB11CAC14BD0488F12B
:1014C0007401EC18FD08670122E0C20ED11C9E01D8
:1014D0002250310945E0C416D10478F0428153818D
:1014E00013965C934E9312971196FC92EE92F9012B
:1014F000718360833A2F2B2F09C00E5F1F4F080D99
:10150000191DD9010D931C9332812381009721F07D
:10151000FC013283238347C030931E0220931F02B5
:1015200042C0808191812817390708F49C015281BB
:101530004381CF01E52FF42F309709F0B5CF80918B
:101540001C0290911D028E159F05F1F42617370796
:10155000D8F48091000190910101009741F48DB77A
:101560009EB72091040130910501821B930BA817AF
:10157000B90708F06CCFB0931D02A0931C02FE01C6
:101580003297718360830FC0CB010E94DA087C011F
:10159000009709F45CCFA801BE010E94000BCE01A8
:1015A0000E947509E701CE01CDB7DEB7ECE00C94DF
:1015B000500B1F93FC0199278827BC01E8941191D7
:1015C0001032E9F3193010F01E30C8F31B3251F01D
:1015D0001D3249F4689406C00E94190B610F711DF9
:1015E000811D911D119110531A30B0F33EF4909566
:1015F0008095709561957F4F8F4F9F4F1F910895F4
:10160000FB01DC0102C001900D9241505040D8F71F
:101610000895FB01DC018D91019080190110D9F32F
:10162000990B0895FB01DC0101900D920020E1F778
:101630000895592F482F372F262F660F771F881FA1
:10164000991F660F771F881F991F620F731F841FD2
:10165000951F660F771F881F991F08952F923F923D
:101660004F925F926F927F928F929F92AF92BF92B2
:10167000CF92DF92EF92FF920F931F93CF93DF935E
:10168000CDB7DEB7CA1BDB0B0FB6F894DEBF0FBEBB
:10169000CDBF09942A88398848885F846E847D8408
:1016A0008C849B84AA84B984C884DF80EE80FD800A
:1016B0000C811B81AA81B981CE0FD11D0FB6F89480
:1016C000DEBF0FBECDBFED01089510E0CCEBD0E042
:1016D00004C0FE010E94D6082296CE3BD107C9F76E
:0416E000F894FFCFAC
:1016E4000000200220000004030004000D00030099
:1016F4000500016865727720776520676F003A3AC4
:1017040076656C7570006469007265003A3A6465C8
:1017140074656E657220003A3A726576657273611B
:1017240000000000005F04DD05FA0329040D044DE8
:021734000400AF
:00000001FF
