:100000000C945E000C9486000C9486000C94860080
:100010000C9486000C9486000C9486000C94860048
:100020000C9486000C9486000C9486000C94860038
:100030000C9486000C9486000C9486000C94860028
:100040000C9472010C9486000C94C0030C94FC0375
:100050000C9486000C9486000C9486000C94860008
:100060000C9486000C94860000000007000201003A
:100070000003040600000000000000000102040864
:100080001020408001020408102001020408102002
:10009000040404040404040402020202020203032E
:1000A0000303030300000000250028002B000000CC
:1000B0000000240027002A006701B70411241FBE96
:1000C000CFEFD8E0DEBFCDBF11E0A0E0B1E0E2E6C7
:1000D000FCE002C005900D92A632B107D9F711E0FD
:1000E000A6E2B1E001C01D92A03EB107E1F710E029
:1000F000CCEBD0E004C02297FE010E941F06C83B53
:10010000D107C9F70E9470050C942F060C940000CB
:1001100061E0809106010E94330261E08091080154
:100120000E94330261E080910A010E94330260E084
:10013000809104010E94330260E0809102010E94DC
:10014000330240E855E260E070E089E391E00C940E
:100150003704CF93DF93EC0160E070E080910A01F7
:100160000E94C302BE0180910801DF91CF910C94DF
:10017000C30260E070E080910A010E94C30260E067
:1001800070E0809108010C94C302AF92BF92CF92AD
:10019000DF92EF92FF920F931F93809104010E94D0
:1001A000A20280329340C4F561E0809106010E9472
:1001B0006B020E94BC0100912A0110912B01209139
:1001C0002C0130912D01601B710B820B930B6093FE
:1001D00026017093270180932801909329010E94A2
:1001E000BC0160932A0170932B0180932C019093A2
:1001F0002D018091260190912701A0912801B091B5
:1002000029014597A105B10560F06DE071E089E332
:1002100091E00E945C0505C060E0809106010E94AB
:100220006B02809102010E94A202909301018093CF
:100230000001833391050CF041C043974F9750F470
:100240001F910F91FF90EF90DF90CF90BF90AF90F4
:100250000C94B900809102010E94A202429774F5A9
:100260006091000170910101882777FD8095982F9A
:100270001F921F921F922FEF2F93A12CB12C65017B
:1002800012E1E12EF12C00E010E02CE030E040E043
:1002900050E00E947D0570932F0160932E010F9016
:1002A0000F900F900F90CB011F910F91FF90EF9047
:1002B000DF90CF90BF90AF900C94A9001F910F9149
:1002C000FF90EF90DF90CF90BF90AF9008950E9485
:1002D000BC0160932A0170932B0180932C019093B1
:1002E0002D0108951F920F920FB60F9211242F9394
:1002F0003F938F939F93AF93BF93809130019091E1
:100300003101A0913201B091330130913801232F96
:100310002D5F2D3720F40196A11DB11D05C0232F9F
:100320002A570296A11DB11D2093380180933001F8
:1003300090933101A0933201B09333018091340145
:1003400090913501A0913601B09137010196A11D20
:10035000B11D8093340190933501A0933601B09381
:100360003701BF91AF919F918F913F912F910F9046
:100370000FBE0F901F9018950F931F938FB7F8948F
:1003800000913001109131012091320130913301FF
:100390008FBFB801C9011F910F910895789484B55A
:1003A000826084BD84B5816084BD85B5826085BD71
:1003B00085B5816085BDEEE6F0E080818160808357
:1003C000E1E8F0E01082808182608083808181603A
:1003D0008083E0E8F0E0808181608083E1EBF0E001
:1003E000808184608083E0EBF0E0808181608083A5
:1003F000EAE7F0E08081846080838081826080838E
:100400008081816080838081806880831092C100B8
:100410000895833069F028F48130A1F0823011F51D
:1004200014C08630B1F08730C1F08430D9F404C0F4
:10043000809180008F7703C0809180008F7D8093B2
:100440008000089584B58F7702C084B58F7D84BD08
:1004500008958091B0008F7703C08091B0008F7DA8
:100460008093B0000895CF93DF9390E0FC01E458AF
:10047000FF4F4491FC01E057FF4F8491882341F1E5
:1004800090E0880F991FFC01E255FF4F25913491B0
:10049000D9018C559F4FFC0185919491C82FD92F7C
:1004A0009FB7F8948C91611106C0409584238C937A
:1004B0008881842308C0623041F4242F2095822350
:1004C0008C938881842B888302C0842B8C939FBF5C
:1004D000DF91CF9108950F931F93CF93DF931F92D6
:1004E000CDB7DEB7282F30E0F901E859FF4F8491EE
:1004F000F901E458FF4F1491F901E057FF4F0491BF
:100500000023D1F0882321F069830E9409026981C8
:10051000E02FF0E0EE0FFF1FEC55FF4F8591949117
:10052000DC019FB7F8948C91611103C01095812371
:1005300001C0812B8C939FBF0F90DF91CF911F91B2
:100540000F9108958E3008F08E50877020910C0125
:1005500040E4249F90011124822B80937C008091A1
:100560007A00806480937A0080917A0086FDFCCFC7
:100570002091780030917900932F80E0AC01422BDC
:100580009A01C90108951F93CF93DF93182FEB01B0
:1005900061E00E943302209711F460E004C0CF3F75
:1005A000D10539F461E0812FDF91CF911F910C9437
:1005B0006B02E12FF0E0E859FF4FE491E330B9F02E
:1005C00028F4E13051F0E230B1F50CC0E63019F119
:1005D000E73049F1E43079F514C084B5806884BD12
:1005E000C7BD2EC084B5806284BDC8BD29C08091BE
:1005F0008000806880938000D0938900C093880039
:100600001FC080918000806280938000D0938B0017
:10061000C0938A0015C08091B00080688093B000BC
:10062000C093B3000DC08091B00080628093B00091
:10063000C093B40005C0C038D1050CF0B3CFADCF26
:10064000DF91CF911F910895FC0184859585FC0170
:10065000E05CFF4F20813181FC01EE5BFF4F808128
:100660009181281B390B2F733327C9010895FC0191
:1006700084859585FC01E05CFF4F40815181FC0140
:10068000EE5BFF4F208131814217530741F001900B
:10069000F081E02DE80FF91F208130E002C02FEF3C
:1006A0003FEFC9010895FC0184859585FC01E05C5C
:1006B000FF4F40815181FC01EE5BFF4F2081318172
:1006C0004217530781F0A081B181A80FB91F8C9107
:1006D000208131812F5F3F4F2F7333273183208358
:1006E000282F30E002C02FEF3FEFC9010895FC0131
:1006F00086859785FC01E05CFF4FDC01AE5BBF4F58
:10070000408151812D913C91119742175307C1F7B8
:100710000895CF93DF93FC0186859785DC01A05C6B
:10072000BF4F2D913C9111972F5F3F4F2F73332770
:10073000EC01CE5BDF4F4881598124173507D9F38F
:100740000D90BC91A02DA80FB91F6C93A685B785FD
:10075000A05CBF4F11963C932E93A689B7892C912C
:1007600081E090E0058C02C0880F991F0A94E2F79F
:10077000282B2C9381E090E0DF91CF91089508958C
:100780001F920F920FB60F9211242F933F934F9306
:100790008F939F93EF93FF934091C6008091DC016C
:1007A0009091DD0101968F7399272091DE013091A0
:1007B000DF018217930759F0E091DC01F091DD0130
:1007C000E456FE4F40839093DD018093DC01FF915E
:1007D000EF919F918F914F913F912F910F900FBE6D
:1007E0000F901F90189589E391E00E942403892BB4
:1007F00011F00C94BF0308951F920F920FB60F9241
:1008000011242F933F938F939F93EF93FF93209106
:1008100098013091990180919A0190919B0128173C
:10082000390731F48091C1008F7D8093C10014C0DD
:10083000E0919A01F0919B01E85AFE4F208180914E
:100840009A0190919B0101968F73992790939B0138
:1008500080939A012093C600FF91EF919F918F9111
:100860003F912F910F900FBE0F901F901895CF9230
:10087000DF92EF92FF92CF93DF93EC016A017B014D
:10088000411581EE580761057105F9F0EC89FD8984
:1008900081E090E00E8C02C0880F991F0A94E2F765
:1008A000808360E079E08DE390E0A70196010E94EB
:1008B000D40521503109410951095695479537957D
:1008C0002795211580E1380798F0EC89FD89108281
:1008D00060E874E88EE190E0A70196010E94D405DB
:1008E000215031094109510956954795379527956A
:1008F000E889F9893083EA89FB892083EE89FF89B9
:10090000408181E090E09C010A8C02C0220F331FDD
:100910000A94E2F7422B4083EE89FF8940819C01D3
:100920000B8C02C0220F331F0A94E2F7422B408344
:10093000EE89FF8940819C010C8C02C0220F331F7D
:100940000A94E2F7422B4083EE89FF8920810D8CC7
:1009500002C0880F991F0A94E2F780958223808352
:10096000DF91CF91FF90EF90DF90CF90089510929C
:100970003C0110923B0188EE93E0A0E0B0E0809350
:100980003D0190933E01A0933F01B093400189E166
:1009900091E090933A01809339018CE991E0909332
:1009A00046018093450188E591E09093480180934A
:1009B000470185EC90E090934A018093490184ECD3
:1009C00090E090934C0180934B0180EC90E09093E9
:1009D0004E0180934D0181EC90E090935001809303
:1009E0004F0186EC90E0909352018093510184E096
:1009F0008093530183E08093540187E080935501F5
:100A000085E08093560181E0809357010895CF924D
:100A1000DF92EF92FF920F931F93CF93DF936C01BE
:100A2000EB017A01E60EF71E00E010E00BC06991C1
:100A3000D601ED91FC910190F081E02DC601099560
:100A4000080F191FCE15DF0591F7C801DF91CF916F
:100A50001F910F91FF90EF90DF90CF900895DB01F1
:100A60000D900020E9F7AD0141505109461B570B8D
:100A7000DC01ED91FC910280F381E02D0994DC0111
:100A8000ED91FC910190F081E02D09940F931F935B
:100A9000CF93DF93EC016DE00E943F058C016AE08B
:100AA000CE010E943F059C01200F311FC901DF913B
:100AB000CF911F910F9108950F931F93CF93DF93C1
:100AC000EC010E942F058C01CE010E944605980181
:100AD000280F391FC901DF91CF911F910F91089500
:100AE0000E94CE010E948800C3EFD3E00E94C5009F
:100AF0002097E1F30E94F303F9CF4F925F926F9238
:100B00007F92AF92BF92CF92DF92EF92FF920F93BC
:100B10001F93CF93DF93CDB7DEB729013A01621B54
:100B2000730B840B950B29893A894B895C892A19A7
:100B30003B094C095D09298B3A8B4B8B5C8B9B01E4
:100B4000AC0169897A898B899C890E94C405E41863
:100B5000F50806091709A80197010E94F6052A0D54
:100B60003B1D4C1D5D1DB901CA01DF91CF911F9145
:100B70000F91FF90EF90DF90CF90BF90AF907F905C
:100B80006F905F904F900895DB018F939F930E9429
:100B90001206BF91AF91A29F800D911DA39F900D52
:100BA000B29F900D11240895A1E21A2EAA1BBB1B1F
:100BB000FD010DC0AA1FBB1FEE1FFF1FA217B30729
:100BC000E407F50720F0A21BB30BE40BF50B661F3F
:100BD000771F881F991F1A9469F760957095809503
:100BE00090959B01AC01BD01CF010895052E97FBA7
:100BF00016F4009407D057FD0DD00E94D40507FCD1
:100C000009D07EF490958095709561957F4F8F4FB8
:100C10009F4F089550954095309521953F4F4F4FE8
:100C20005F4F08950E942306A59F900DB49F900DDD
:100C3000A49F800D911D11240895EE0FFF1F0590B4
:100C4000F491E02D0994A29FB001B39FC001A39F2E
:100C500001D0B29F700D811D1124911D0895F8944B
:020C6000FFCFC4
:100C62000004030004000D0003000500013A3A7677
:100C7200656C7570000000000089030705240353AA
:060C8200033703770300B5
:00000001FF
