:100000000C945F000C9487000C9487000C9487007C
:100010000C9487000C9487000C9487000C94870044
:100020000C9487000C9487000C9487000C94870034
:100030000C9487000C9487000C9487000C94870024
:100040000C9449020C9487000C9497040C94D304EC
:100050000C9487000C9487000C9487000C94870004
:100060000C9487000C948700000000070002010038
:100070000003040600000000000000000102040864
:100080001020408001020408102001020408102002
:10009000040404040404040402020202020203032E
:1000A0000303030300000000250028002B000000CC
:1000B0000000240027002A002B028E054102112493
:1000C0001FBECFEFD8E0DEBFCDBF11E0A0E0B1E0B2
:1000D000EAE8F8E102C005900D92A834B107D9F71B
:1000E00012E0A8E4B1E001C01D92A431B107E1F72C
:1000F00010E0CCEBD0E004C02297FE010E9464091E
:10010000C83BD107C9F70E9491060C94380C0C9497
:10011000000061E080910C010E940A0361E080917F
:100120000E010E940A0361E0809110010E940A03FF
:1001300060E080910A010E940A0360E0809108015A
:100140000E940A0340E855E260E070E089E691E031
:100150000E940E0563E171E089E691E00E947D0650
:1001600089E691E00C944E04BC01809110010E943C
:100170009A0360E070E080910E010C949A03CF9393
:10018000DF93EC0160E070E0809110010E949A031F
:10019000BE0180910E01DF91CF910C949A03CF9311
:1001A000DF93EC0160E070E0809110010E949A03FF
:1001B000BE0180910E01DF91CF910C949A039F9222
:1001C000AF92BF92CF92DF92EF92FF920F931F9365
:1001D000CF93DF93CDB7DEB727970FB6F894DEBF86
:1001E0000FBECDBF80910A010E94790380329340F7
:1001F000C4F561E080910C010E9442030E949302C9
:1002000000915C0110915D0120915E0130915F01D0
:10021000601B710B820B930B609358017093590113
:1002200080935A0190935B010E94930260935C015A
:1002300070935D0180935E0190935F0180915801FE
:1002400090915901A0915A01B0915B014F97A1057E
:10025000B10560F06EE171E089E691E00E947D06F3
:1002600005C060E080910C010E944203809108016A
:100270000E947903909307018093060166E271E082
:1002800088E491E00E949B0760910601709107014C
:1002900088E491E00E94F40768E471E089E691E067
:1002A0000E94690699249A94B8C044E269E671E014
:1002B000CE0101960E94CE06BE016F5F7F4F8FE494
:1002C00091E00E948407CE0101960E94F60622E08A
:1002D00030E040E050E06FE471E0CE0101960E9412
:1002E00059086EE271E0CE0101960E942608182F8F
:1002F000CE0101960E94F606112361F142E050E022
:100300006FE471E0CE0101960E949E08CE01019635
:100310000E94AA081F921F921F929F92A12CB12C9B
:10032000650114E6E12EF12C00E010E020E030E061
:10033000A9010E94B6087093570160935601CE013F
:1003400001960E94F60680915601909157010E94F5
:10035000B40043C022E030E040E050E06FE471E0E0
:10036000CE0101960E94590861E371E0CE01019629
:100370000E942608182FCE0101960E94F60611232E
:1003800089F142E050E06FE471E0CE0101960E94F5
:100390009E08CE0101960E94AA081F921F921F92EA
:1003A0009F92A12CB12C65011CE9E12EFF24FA9447
:1003B0000FEF1FEF20E030E0A9010E94B608709314
:1003C000570160935601CE0101960E94F606809176
:1003D0005601909157010E94BF000F900F900F900F
:1003E0000F901BC022E030E040E050E06FE471E08D
:1003F000CE0101960E94590864E371E0CE01019696
:100400000E942608182FCE0101960E94F60611239D
:1004100021F080E090E00E94CF0089E691E00E9408
:10042000FB03181619060CF440CF89E691E00E94F0
:100430004E0427960FB6F894DEBF0FBECDBFDF91F6
:10044000CF911F910F91FF90EF90DF90CF90BF90D1
:10045000AF909F9008950E94930260935C01709307
:100460005D0180935E0190935F016DE271E08FE426
:1004700091E00E9467076DE271E088E491E00C94DE
:10048000670788E491E00E94F6068FE491E00C94FF
:10049000F6061F920F920FB60F9211242F933F93DF
:1004A0008F939F93AF93BF9380916001909161016F
:1004B000A0916201B091630130916801232F2D5FFB
:1004C0002D3720F40196A11DB11D05C0232F2A57F9
:1004D0000296A11DB11D2093680180936001909345
:1004E0006101A0936201B0936301809164019091D6
:1004F0006501A0916601B09167010196A11DB11D32
:100500008093640190936501A0936601B0936701A5
:10051000BF91AF919F918F913F912F910F900FBEFF
:100520000F901F9018950F931F938FB7F894009119
:1005300060011091610120916201309163018FBFD0
:10054000B801C9011F910F910895789484B5826014
:1005500084BD84B5816084BD85B5826085BD85B567
:10056000816085BDEEE6F0E0808181608083E1E816
:10057000F0E010828081826080838081816080834E
:10058000E0E8F0E0808181608083E1EBF0E0808151
:1005900084608083E0EBF0E0808181608083EAE723
:1005A000F0E08081846080838081826080838081AC
:1005B000816080838081806880831092C10008956B
:1005C000833069F028F48130A1F0823011F514C035
:1005D0008630B1F08730C1F08430D9F404C0809106
:1005E00080008F7703C0809180008F7D8093800092
:1005F000089584B58F7702C084B58F7D84BD08953A
:100600008091B0008F7703C08091B0008F7D809380
:10061000B0000895CF93DF9390E0FC01E458FF4FC2
:100620004491FC01E057FF4F8491882341F190E011
:10063000880F991FFC01E255FF4F25913491D90194
:100640008C559F4FFC0185919491C82FD92F9FB74E
:10065000F8948C91611106C0409584238C93888115
:10066000842308C0623041F4242F209582238C9388
:100670008881842B888302C0842B8C939FBFDF9159
:10068000CF9108950F931F93CF93DF931F92CDB710
:10069000DEB7282F30E0F901E859FF4F8491F901C6
:1006A000E458FF4F1491F901E057FF4F04910023E4
:1006B000D1F0882321F069830E94E0026981E02F54
:1006C000F0E0EE0FFF1FEC55FF4F85919491DC0198
:1006D0009FB7F8948C91611103C01095812301C0DC
:1006E000812B8C939FBF0F90DF91CF911F910F9122
:1006F00008958E3008F08E5087702091120140E4EA
:10070000249F90011124822B80937C0080917A0099
:10071000806480937A0080917A0086FDFCCF2091DE
:10072000780030917900932F80E0AC01422B9A0140
:10073000C90108951F93CF93DF93182FEB0161E058
:100740000E940A03209711F460E004C0CF3FD10556
:1007500039F461E0812FDF91CF911F910C94420316
:10076000E12FF0E0E859FF4FE491E330B9F028F4CD
:10077000E13051F0E230B1F50CC0E63019F1E7306C
:1007800049F1E43079F514C084B5806884BDC7BDF3
:100790002EC084B5806284BDC8BD29C08091800010
:1007A000806880938000D0938900C09388001FC028
:1007B00080918000806280938000D0938B00C093F2
:1007C0008A0015C08091B00080688093B000C0930B
:1007D000B3000DC08091B00080628093B000C093E0
:1007E000B40005C0C038D1050CF0B3CFADCFDF9158
:1007F000CF911F910895FC0184859585FC01E05CF3
:10080000FF4F20813181FC01EE5BFF4F80819181A0
:10081000281B390B2F733327C9010895FC018485E8
:100820009585FC01E05CFF4F40815181FC01EE5B4E
:10083000FF4F208131814217530741F00190F08131
:10084000E02DE80FF91F208130E002C02FEF3FEFCD
:10085000C9010895FC0184859585FC01E05CFF4F8A
:1008600040815181FC01EE5BFF4F208131814217B5
:10087000530781F0A081B181A80FB91F8C9120810D
:1008800031812F5F3F4F2F73332731832083282FF0
:1008900030E002C02FEF3FEFC9010895FC018685CB
:1008A0009785FC01E05CFF4FDC01AE5BBF4F4081F0
:1008B00051812D913C91119742175307C1F708952B
:1008C000CF93DF93FC0186859785DC01A05CBF4F49
:1008D0002D913C9111972F5F3F4F2F733327EC01E0
:1008E000CE5BDF4F4881598124173507D9F30D902E
:1008F000BC91A02DA80FB91F6C93A685B785A05CED
:10090000BF4F11963C932E93A689B7892C9181E015
:1009100090E0058C02C0880F991F0A94E2F7282BFB
:100920002C9381E090E0DF91CF91089508951F927C
:100930000F920FB60F9211242F933F934F938F93E3
:100940009F93EF93FF934091C60080910C0290918A
:100950000D0201968F73992720910E0230910F029C
:100960008217930759F0E0910C02F0910D02E453C5
:10097000FE4F408390930D0280930C02FF91EF9104
:100980009F918F914F913F912F910F900FBE0F909C
:100990001F90189589E691E00E94FB03892B11F0C6
:1009A0000C94960408951F920F920FB60F92112483
:1009B0002F933F938F939F93EF93FF932091C801C1
:1009C0003091C9018091CA019091CB012817390754
:1009D00031F48091C1008F7D8093C10014C0E091FB
:1009E000CA01F091CB01E857FE4F20818091CA01E6
:1009F0009091CB0101968F7399279093CB018093AF
:100A0000CA012093C600FF91EF919F918F913F9172
:100A10002F910F900FBE0F901F901895CF92DF92DD
:100A2000EF92FF92CF93DF93EC016A017B014115B6
:100A300081EE580761057105F9F0EC89FD8981E0C7
:100A400090E00E8C02C0880F991F0A94E2F7808311
:100A500060E079E08DE390E0A70196010E9418091B
:100A600021503109410951095695479537952795E8
:100A7000211580E1380798F0EC89FD89108260E843
:100A800074E88EE190E0A70196010E9418092150B8
:100A90003109410951095695479537952795E889B8
:100AA000F9893083EA89FB892083EE89FF894081B7
:100AB00081E090E09C010A8C02C0220F331F0A944F
:100AC000E2F7422B4083EE89FF8940819C010B8C29
:100AD00002C0220F331F0A94E2F7422B4083EE89B3
:100AE000FF8940819C010C8C02C0220F331F0A94A5
:100AF000E2F7422B4083EE89FF8920810D8C02C0F2
:100B0000880F991F0A94E2F7809582238083DF91F2
:100B1000CF91FF90EF90DF90CF90089510926C01ED
:100B200010926B0188EE93E0A0E0B0E080936D013D
:100B300090936E01A0936F01B09370018BE391E0ED
:100B400090936A01809369018CEC91E09093760117
:100B50008093750188E891E0909378018093770104
:100B600085EC90E090937A018093790184EC90E099
:100B700090937C0180937B0180EC90E090937E01C8
:100B800080937D0181EC90E09093800180937F01C0
:100B900086EC90E0909382018093810184E08093C1
:100BA000830183E08093840187E08093850185E061
:100BB0008093860181E0809387010895CF92DF9230
:100BC000EF92FF920F931F93CF93DF936C01EB0192
:100BD0007A01E60EF71E00E010E00BC06991D60125
:100BE000ED91FC910190F081E02DC6010995080F6F
:100BF000191FCE15DF0591F7C801DF91CF911F9125
:100C00000F91FF90EF90DF90CF900895DB010D9052
:100C10000020E9F7AD0141505109461B570BDC019B
:100C2000ED91FC910280F381E02D0994AF92BF9287
:100C3000CF92DF92EF92FF920F931F93CF93DF93A8
:100C40007C016B0100E010E0C0E0D0E011C0D701F2
:100C5000ED91FC91A080B180B801C6010E944808C6
:100C6000682FC701F5010995C80FD91F0F5F1F4FE6
:100C7000D60114968D919C9115970817190738F392
:100C8000CE01DF91CF911F910F91FF90EF90DF90F8
:100C9000CF90BF90AF900895DC01ED91FC91019051
:100CA000F081E02D09940F931F93CF93DF93EC0114
:100CB0006DE00E944C068C016AE0CE010E944C0659
:100CC0009C01200F311FC901DF91CF911F910F911E
:100CD00008950F931F93CF93DF93EC010E941606A4
:100CE0008C01CE010E9453069C01200F311FC901C7
:100CF000DF91CF911F910F9108950F931F93CF9381
:100D0000DF93EC010E9406068C01CE010E9453067F
:100D10009801280F391FC901DF91CF911F910F91C1
:100D200008950E94A5020E948900CAECD4E00E94A6
:100D3000DF002097E1F30E94CA04F9CF0F931F93BD
:100D4000CF93DF93EC010E949302688779878A87AB
:100D50009B87E881F9810680F781E02DCE01099516
:100D60009C0197FF15C00E949302088519852A856A
:100D70003B85601B710B820B930B0C811D812E81B7
:100D80003F81601771078207930718F32FEF3FEF3A
:100D9000C901DF91CF911F910F910895EF92FF92BA
:100DA0000F931F93CF93DF93EC018B01E42E6DE241
:100DB00071E00E946707C8010E949E06FF24E7FCBD
:100DC000F09497FD0BC08E159F0541F0682FCE0162
:100DD0000E94E107C8010E949E06F3CFCE01DF9179
:100DE000CF911F910F91FF90EF900895FC018081AA
:100DF00091810C94030ACF93DF93EC018881998150
:100E0000009711F00E94030A198218821D821C8229
:100E10001B821A82DF91CF9108950F931F93CF9376
:100E2000DF93EC018B016F5F7F4F888199810E9476
:100E30009F0A009731F0998388831B830A8381E09E
:100E400001C080E0DF91CF911F910F910895CF9362
:100E5000DF93EC0188819981892B31F08A819B8114
:100E60008617970708F00CC0CE010E940D07882353
:100E700049F08C819D81892B19F4E881F9811082D8
:100E800081E001C080E0DF91CF910895EF92FF9261
:100E90000F931F93CF93DF93EC017B018A01BA017B
:100EA0000E942707811104C0CE010E94FB0607C0E3
:100EB0001D830C83B701888199810E94A00BCE010C
:100EC000DF91CF911F910F91FF90EF900895DC017A
:100ED00011961C921E9213961C921E9212971596B2
:100EE0001C921E92149716961C926115710559F06A
:100EF000DB010D900020E9F7AD0141505109461B7F
:100F0000570B0C9446070895CF93DF93EC01FB0138
:100F10008617970761F0608171816115710529F06D
:100F2000448155810E94460702C00E94FB06CE0103
:100F3000DF91CF910895CF93DF93D82FC92F6115FB
:100F4000710561F0DB010D900020E9F7AD01415022
:100F50005109461B570B0E94460702C00E94FB0620
:100F60008D2F9C2FDF91CF910895EF92FF920F93D9
:100F70001F93CF93DF93EC017B010C811D816115E1
:100F8000710511F480E016C04115510591F0040F70
:100F9000151FB8010E9427078823A1F328813981F2
:100FA0008C819D81B701820F931F0E94A00B1D832E
:100FB0000C8381E0DF91CF911F910F91FF90EF9013
:100FC0000895CF93DF9300D0CDB7DEB769831A823F
:100FD00041E050E0BE016F5F7F4F0E94B5070F9068
:100FE0000F90DF91CF910895EF92FF920F931F938F
:100FF000CF93DF93CDB7DEB727970FB6F894DEBF58
:101000000FBECDBF7C01CB014AE050E08E010F5FE7
:101010001F4FB8010E94A70BF80101900020E9F7CB
:10102000AF0141505109401B510BB801C7010E944B
:10103000B50727960FB6F894DEBF0FBECDBFDF9180
:10104000CF911F910F91FF90EF900895DC011496BE
:101050002D913C911597232B39F481E06115710591
:1010600011F0FB0108C00895DC01ED91FC916115C0
:10107000710529F481E09081992349F007C0CF01DF
:101080000E94970B9C0181E0232B09F080E00895DA
:10109000FC01248135816217730748F480819181B6
:1010A000009729F0FC01E60FF71F8081089580E08A
:1010B0000895BF92CF92DF92EF92FF920F931F930A
:1010C000CF93DF936C017B01EA0189012417350777
:1010D00020F48D2FE901042F182F6DE271E0C60175
:1010E0000E946707D70114968D919C9115978C17D4
:1010F0009D07C8F08017910708F48C01D701ED9186
:10110000FC911197E00FF11FB08010826D917C91DE
:101110006C0F7D1FC6010E949B07D701ED91FC91CA
:10112000E00FF11FB082C601DF91CF911F910F91A7
:10113000FF90EF90DF90CF90BF900895CF93DF9313
:10114000EC01FB01248135810E945908CE01DF9119
:10115000CF910895FC0180819181009711F00C944A
:10116000670B60E070E080E090E008954F925F923E
:101170006F927F92AF92BF92CF92DF92EF92FF92E7
:101180000F931F93CF93DF93CDB7DEB729013A01B9
:10119000621B730B840B950B29893A894B895C89F7
:1011A0002A193B094C095D09298B3A8B4B8B5C8BC7
:1011B0009B01AC0169897A898B899C890E94080905
:1011C000E418F50806091709A80197010E943A09D1
:1011D0002A0D3B1D4C1D5D1DB901CA01DF91CF9148
:1011E0001F910F91FF90EF90DF90CF90BF90AF9045
:1011F0007F906F905F904F9008950E945609A59F31
:10120000900DB49F900DA49F800D911D1124089501
:10121000DB018F939F930E94FD08BF91AF91A29F26
:10122000800D911DA39F900DB29F900D11240895E4
:10123000A1E21A2EAA1BBB1BFD010DC0AA1FBB1FDA
:10124000EE1FFF1FA217B307E407F50720F0A21B4C
:10125000B30BE40BF50B661F771F881F991F1A94B9
:1012600069F760957095809590959B01AC01BD01E3
:10127000CF010895052E97FB16F4009407D057FD73
:101280000DD00E94180907FC09D07EF49095809536
:10129000709561957F4F8F4F9F4F08955095409562
:1012A000309521953F4F4F4F5F4F0895A29FB0015A
:1012B000B39FC001A39F01D0B29F700D811D112467
:1012C000911D0895EE0FFF1F0590F491E02D0994F4
:1012D0000F931F93CF93DF938230910510F482E038
:1012E00090E0E0911202F091130220E030E0C0E0C3
:1012F000D0E023C04081518148175907A8F0481712
:10130000590761F482819381209719F09B838A8326
:101310002EC0909313028093120229C0211531052B
:1013200029F04217530710F0A90102C0BE01DF01E6
:1013300002811381EF019A01F8013097D9F6211546
:10134000310509F1281B390B2430310590F4129630
:101350008D919C9113976115710521F0FB01938389
:10136000828304C09093130280931202FD0132968F
:1013700044C0FD01E20FF31F819391932250310984
:101380002D933C933AC02091100230911102232BEF
:1013900041F4209102013091030130931102209316
:1013A000100220910001309101012115310541F415
:1013B0002DB73EB74091040150910501241B350B18
:1013C000E0911002F0911102E217F307A0F42E1B36
:1013D0003F0B2817390778F0AC014E5F5F4F241799
:1013E000350748F04E0F5F1F5093110240931002D3
:1013F0008193919302C0E0E0F0E0CF01DF91CF91C3
:101400001F910F910895EF92FF920F931F93CF9327
:10141000DF93009709F48EC0DC01129713961C929B
:101420001E921297E0901202F0901302E114F10460
:1014300089F42D913C911197280F391F809110024A
:10144000909111028217930789F5B0931102A0932E
:10145000100270C0E70120E030E001C0EA01CA17C5
:10146000DB0738F44A815B819E0141155105B1F7D4
:1014700022C0AC0142505109FA01D383C2830081DA
:101480001181BC01600F711F6C177D0761F46881C9
:101490007981600F711F6E5F7F4F718360836A81F6
:1014A0007B81738362832115310529F4B093130284
:1014B000A09312023FC0F901B383A283E9014991CD
:1014C0005991C40FD51FAC17BD0771F4DC019E9173
:1014D0008E91840F951F02969183808312968D9131
:1014E0009C91139793838283A0E0B0E002C0D70160
:1014F0007C01F701828193810097C9F7C7010296A9
:1015000020813181820F931F2091100230911102AE
:101510002817390779F4109729F4109213021092C2
:10152000120204C013961C921E921297F09211029E
:10153000E0921002CDB7DEB7E6E00C94290CA0E0F3
:10154000B0E0E5EAFAE00C94070CEC01009729F40E
:10155000CB010E946809EC01B4C0DC01A60FB71FE3
:10156000FC013297AE17BF0718F4C0E0D0E0A9C065
:101570000081118106171707B0F00530110508F436
:10158000A0C0C80104978617970708F49AC00250B4
:101590001109061B170B0D931D9371836083CD01F9
:1015A0000E94030A8EC06B01C01AD10A7C01E00EB2
:1015B000F11EE0911202F091130220E030E080E091
:1015C00090E048C0EE15FF05D1F580809180540170
:1015D00042E0A40EB11CAC14BD0488F17401EC18F7
:1015E000FD08670122E0C20ED11C9E012250310984
:1015F00045E0C416D10478F04281538113965C9380
:101600004E9312971196FC92EE92F90171836083CA
:101610003A2F2B2F09C00E5F1F4F080D191DD9013E
:101620000D931C9332812381009721F0FC013283BA
:10163000238347C0309312022093130242C080815B
:1016400091812817390708F49C0152814381CF0109
:10165000E52FF42F309709F0B5CF809110029091CB
:1016600011028E159F05F1F426173707D8F48091E3
:10167000000190910101009741F48DB79EB7209130
:10168000040130910501821B930BA817B90708F0DC
:101690006CCFB0931102A0931002FE0132977183B8
:1016A00060830FC0CB010E9468097C01009709F498
:1016B0005CCFA801BE010E948E0BCE010E94030ADE
:1016C000E701CE01CDB7DEB7ECE00C94230C1F93FD
:1016D000FC0199278827BC01E89411911032E9F3A5
:1016E000193010F01E30C8F31B3251F01D3249F48E
:1016F000689406C00E94C80B610F711D811D911D69
:10170000119110531A30B0F33EF490958095709576
:1017100061957F4F8F4F9F4F1F910895FB01DC0113
:1017200002C001900D9241505040D8F70895FB013E
:10173000DC018D91019080190110D9F3990B089566
:10174000FB01DC0101900D920020E1F70895FB01FF
:101750009F01E8944230C4F04532B4F44A3029F491
:1017600097FB1EF4909581959F4F642F77270E94D9
:10177000ED0B805D8A330CF0895D8193CB0100977E
:10178000A1F716F45DE251931082C9010C94DD0BB0
:10179000592F482F372F262F660F771F881F991F25
:1017A000660F771F881F991F620F731F841F951F75
:1017B000660F771F881F991F0895DC01FC01672FB2
:1017C00071917723E1F7329704C07C916D93708318
:1017D0006291AE17BF07C8F30895AA1BBB1B51E166
:1017E00007C0AA1FBB1FA617B70710F0A61BB70B91
:1017F000881F991F5A95A9F780959095BC01CD0136
:1018000008952F923F924F925F926F927F928F92A4
:101810009F92AF92BF92CF92DF92EF92FF920F937F
:101820001F93CF93DF93CDB7DEB7CA1BDB0B0FB689
:10183000F894DEBF0FBECDBF09942A883988488846
:101840005F846E847D848C849B84AA84B984C884DC
:10185000DF80EE80FD800C811B81AA81B981CE0FD3
:10186000D11D0FB6F894DEBF0FBECDBFED010895B8
:1018700010E0CCEBD0E004C0FE010E946409229687
:0A188000CE3BD107C9F7F894FFCF63
:10188A000000140220000004030004000D000300FD
:10189A000500016865727720776520676F003A3A1C
:1018AA0076656C7570003A3A70726F7820006469D8
:1018BA0000726500737400000000006004DE05FB1E
:0818CA00032A040E044E040081
:00000001FF
